{
  "contractName": "ExerciceSolution",
  "abi": [
    {
      "inputs": [
        {
          "internalType": "contract IUniswapV2Factory",
          "name": "_uniswapFactory",
          "type": "address"
        },
        {
          "internalType": "contract myERC20",
          "name": "_erc20",
          "type": "address"
        },
        {
          "internalType": "contract DummyToken",
          "name": "_dtk",
          "type": "address"
        },
        {
          "internalType": "contract IUniswapV2Router01",
          "name": "router",
          "type": "address"
        }
      ],
      "stateMutability": "nonpayable",
      "type": "constructor"
    },
    {
      "inputs": [
        {
          "internalType": "address",
          "name": "tokena",
          "type": "address"
        },
        {
          "internalType": "address",
          "name": "tokenb",
          "type": "address"
        }
      ],
      "name": "getPair",
      "outputs": [
        {
          "internalType": "contract IUniswapV2Pair",
          "name": "",
          "type": "address"
        }
      ],
      "stateMutability": "view",
      "type": "function"
    },
    {
      "inputs": [],
      "name": "addLiquidity",
      "outputs": [],
      "stateMutability": "nonpayable",
      "type": "function"
    },
    {
      "inputs": [],
      "name": "withdrawLiquidity",
      "outputs": [],
      "stateMutability": "nonpayable",
      "type": "function"
    },
    {
      "inputs": [],
      "name": "swapYourTokenForDummyToken",
      "outputs": [],
      "stateMutability": "nonpayable",
      "type": "function"
    },
    {
      "inputs": [],
      "name": "swapYourTokenForEth",
      "outputs": [],
      "stateMutability": "nonpayable",
      "type": "function"
    }
  ],
  "bytecode": "0x608060405234801561001057600080fd5b506040516113a43803806113a48339818101604052608081101561003357600080fd5b8101908080519060200190929190805190602001909291908051906020019092919080519060200190929190505050836000806101000a81548173ffffffffffffffffffffffffffffffffffffffff021916908373ffffffffffffffffffffffffffffffffffffffff16021790555082600260006101000a81548173ffffffffffffffffffffffffffffffffffffffff021916908373ffffffffffffffffffffffffffffffffffffffff16021790555080600160006101000a81548173ffffffffffffffffffffffffffffffffffffffff021916908373ffffffffffffffffffffffffffffffffffffffff160217905550600160009054906101000a900473ffffffffffffffffffffffffffffffffffffffff1673ffffffffffffffffffffffffffffffffffffffff1663ad5c46486040518163ffffffff1660e01b815260040160206040518083038186803b15801561018c57600080fd5b505afa1580156101a0573d6000803e3d6000fd5b505050506040513d60208110156101b657600080fd5b8101908080519060200190929190505050600460006101000a81548173ffffffffffffffffffffffffffffffffffffffff021916908373ffffffffffffffffffffffffffffffffffffffff16021790555081600360006101000a81548173ffffffffffffffffffffffffffffffffffffffff021916908373ffffffffffffffffffffffffffffffffffffffff160217905550505050506111498061025b6000396000f3fe608060405234801561001057600080fd5b50600436106100575760003560e01c80637c587b221461005c5780637ea382c114610066578063c4a8599314610070578063e6a439051461007a578063e8078d941461011e575b600080fd5b610064610128565b005b61006e610553565b005b610078610751565b005b6100dc6004803603604081101561009057600080fd5b81019080803573ffffffffffffffffffffffffffffffffffffffff169060200190929190803573ffffffffffffffffffffffffffffffffffffffff169060200190929190505050610b7c565b604051808273ffffffffffffffffffffffffffffffffffffffff1673ffffffffffffffffffffffffffffffffffffffff16815260200191505060405180910390f35b610126610cd9565b005b6000610178600260009054906101000a900473ffffffffffffffffffffffffffffffffffffffff16600360009054906101000a900473ffffffffffffffffffffffffffffffffffffffff16610b7c565b9050600073ffffffffffffffffffffffffffffffffffffffff168173ffffffffffffffffffffffffffffffffffffffff16141561021d576040517f08c379a000000000000000000000000000000000000000000000000000000000815260040180806020018281038252600e8152602001807f70616972206e6f7420666f756e6400000000000000000000000000000000000081525060200191505060405180910390fd5b6060600260405190808252806020026020018201604052801561024f5781602001602082028038833980820191505090505b509050600260009054906101000a900473ffffffffffffffffffffffffffffffffffffffff168160008151811061028257fe5b602002602001019073ffffffffffffffffffffffffffffffffffffffff16908173ffffffffffffffffffffffffffffffffffffffff1681525050600360009054906101000a900473ffffffffffffffffffffffffffffffffffffffff16816001815181106102ec57fe5b602002602001019073ffffffffffffffffffffffffffffffffffffffff16908173ffffffffffffffffffffffffffffffffffffffff1681525050610374600260009054906101000a900473ffffffffffffffffffffffffffffffffffffffff16600160009054906101000a900473ffffffffffffffffffffffffffffffffffffffff16610ee6565b600160009054906101000a900473ffffffffffffffffffffffffffffffffffffffff1673ffffffffffffffffffffffffffffffffffffffff166338ed17396103e860018430426040518663ffffffff1660e01b815260040180868152602001858152602001806020018473ffffffffffffffffffffffffffffffffffffffff1673ffffffffffffffffffffffffffffffffffffffff168152602001838152602001828103825285818151815260200191508051906020019060200280838360005b83811015610450578082015181840152602081019050610435565b505050509050019650505050505050600060405180830381600087803b15801561047957600080fd5b505af115801561048d573d6000803e3d6000fd5b505050506040513d6000823e3d601f19601f8201168201806040525060208110156104b757600080fd5b81019080805160405193929190846401000000008211156104d757600080fd5b838201915060208201858111156104ed57600080fd5b825186602082028301116401000000008211171561050a57600080fd5b8083526020830192505050908051906020019060200280838360005b83811015610541578082015181840152602081019050610526565b50505050905001604052505050505050565b6105a1600460009054906101000a900473ffffffffffffffffffffffffffffffffffffffff16600160009054906101000a900473ffffffffffffffffffffffffffffffffffffffff16610ee6565b6105ef600260009054906101000a900473ffffffffffffffffffffffffffffffffffffffff16600160009054906101000a900473ffffffffffffffffffffffffffffffffffffffff16610ee6565b600160009054906101000a900473ffffffffffffffffffffffffffffffffffffffff1673ffffffffffffffffffffffffffffffffffffffff166302751cec600260009054906101000a900473ffffffffffffffffffffffffffffffffffffffff166103e860018030426040518763ffffffff1660e01b8152600401808773ffffffffffffffffffffffffffffffffffffffff1673ffffffffffffffffffffffffffffffffffffffff1681526020018681526020018581526020018481526020018373ffffffffffffffffffffffffffffffffffffffff1673ffffffffffffffffffffffffffffffffffffffff16815260200182815260200196505050505050506040805180830381600087803b15801561070857600080fd5b505af115801561071c573d6000803e3d6000fd5b505050506040513d604081101561073257600080fd5b8101908080519060200190929190805190602001909291905050505050565b60006107a1600260009054906101000a900473ffffffffffffffffffffffffffffffffffffffff16600460009054906101000a900473ffffffffffffffffffffffffffffffffffffffff16610b7c565b9050600073ffffffffffffffffffffffffffffffffffffffff168173ffffffffffffffffffffffffffffffffffffffff161415610846576040517f08c379a000000000000000000000000000000000000000000000000000000000815260040180806020018281038252600e8152602001807f50616972206e6f7420666f756e6400000000000000000000000000000000000081525060200191505060405180910390fd5b606060026040519080825280602002602001820160405280156108785781602001602082028038833980820191505090505b509050600260009054906101000a900473ffffffffffffffffffffffffffffffffffffffff16816000815181106108ab57fe5b602002602001019073ffffffffffffffffffffffffffffffffffffffff16908173ffffffffffffffffffffffffffffffffffffffff1681525050600460009054906101000a900473ffffffffffffffffffffffffffffffffffffffff168160018151811061091557fe5b602002602001019073ffffffffffffffffffffffffffffffffffffffff16908173ffffffffffffffffffffffffffffffffffffffff168152505061099d600260009054906101000a900473ffffffffffffffffffffffffffffffffffffffff16600160009054906101000a900473ffffffffffffffffffffffffffffffffffffffff16610ee6565b600160009054906101000a900473ffffffffffffffffffffffffffffffffffffffff1673ffffffffffffffffffffffffffffffffffffffff166338ed17396103e860018430426040518663ffffffff1660e01b815260040180868152602001858152602001806020018473ffffffffffffffffffffffffffffffffffffffff1673ffffffffffffffffffffffffffffffffffffffff168152602001838152602001828103825285818151815260200191508051906020019060200280838360005b83811015610a79578082015181840152602081019050610a5e565b505050509050019650505050505050600060405180830381600087803b158015610aa257600080fd5b505af1158015610ab6573d6000803e3d6000fd5b505050506040513d6000823e3d601f19601f820116820180604052506020811015610ae057600080fd5b8101908080516040519392919084640100000000821115610b0057600080fd5b83820191506020820185811115610b1657600080fd5b8251866020820283011164010000000082111715610b3357600080fd5b8083526020830192505050908051906020019060200280838360005b83811015610b6a578082015181840152602081019050610b4f565b50505050905001604052505050505050565b60008060008373ffffffffffffffffffffffffffffffffffffffff168573ffffffffffffffffffffffffffffffffffffffff1610610bbb578385610bbe565b84845b915091506000809054906101000a900473ffffffffffffffffffffffffffffffffffffffff1673ffffffffffffffffffffffffffffffffffffffff1663e6a4390583836040518363ffffffff1660e01b8152600401808373ffffffffffffffffffffffffffffffffffffffff1673ffffffffffffffffffffffffffffffffffffffff1681526020018273ffffffffffffffffffffffffffffffffffffffff1673ffffffffffffffffffffffffffffffffffffffff1681526020019250505060206040518083038186803b158015610c9457600080fd5b505afa158015610ca8573d6000803e3d6000fd5b505050506040513d6020811015610cbe57600080fd5b81019080805190602001909291905050509250505092915050565b610d27600460009054906101000a900473ffffffffffffffffffffffffffffffffffffffff16600160009054906101000a900473ffffffffffffffffffffffffffffffffffffffff16610ee6565b610d75600260009054906101000a900473ffffffffffffffffffffffffffffffffffffffff16600160009054906101000a900473ffffffffffffffffffffffffffffffffffffffff16610ee6565b600160009054906101000a900473ffffffffffffffffffffffffffffffffffffffff1673ffffffffffffffffffffffffffffffffffffffff1663f305d7196103e8600260009054906101000a900473ffffffffffffffffffffffffffffffffffffffff166103e860018030426040518863ffffffff1660e01b8152600401808773ffffffffffffffffffffffffffffffffffffffff1673ffffffffffffffffffffffffffffffffffffffff1681526020018681526020018581526020018481526020018373ffffffffffffffffffffffffffffffffffffffff1673ffffffffffffffffffffffffffffffffffffffff16815260200182815260200196505050505050506060604051808303818588803b158015610e9157600080fd5b505af1158015610ea5573d6000803e3d6000fd5b50505050506040513d6060811015610ebc57600080fd5b81019080805190602001909291908051906020019092919080519060200190929190505050505050565b600560008373ffffffffffffffffffffffffffffffffffffffff1673ffffffffffffffffffffffffffffffffffffffff16815260200190815260200160002060008273ffffffffffffffffffffffffffffffffffffffff1673ffffffffffffffffffffffffffffffffffffffff16815260200190815260200160002060009054906101000a900460ff1615610f7a57611041565b6000829050610faa83837fffffffffffffffffffffffffffffffffffffffffffffffffffffffffffffffff611045565b6001600560008573ffffffffffffffffffffffffffffffffffffffff1673ffffffffffffffffffffffffffffffffffffffff16815260200190815260200160002060008473ffffffffffffffffffffffffffffffffffffffff1673ffffffffffffffffffffffffffffffffffffffff16815260200190815260200160002060006101000a81548160ff021916908315150217905550505b5050565b60008390508073ffffffffffffffffffffffffffffffffffffffff1663095ea7b384846040518363ffffffff1660e01b8152600401808373ffffffffffffffffffffffffffffffffffffffff1673ffffffffffffffffffffffffffffffffffffffff16815260200182815260200192505050602060405180830381600087803b1580156110d157600080fd5b505af11580156110e5573d6000803e3d6000fd5b505050506040513d60208110156110fb57600080fd5b8101908080519060200190929190505050505050505056fea2646970667358221220c8cf15d4d7f78b4de1119500e8a158c28cab082dffd156d277d1ea9f60c377fd64736f6c63430006020033",
  "source": "pragma solidity ^0.6.0;\r\n\r\nimport \"./utils/IUniswapV2Factory.sol\";\r\nimport \"./utils/IUniswapV2Pair.sol\";\r\nimport \"./myERC20.sol\";\r\nimport \"./utils/IUniswapV2Router.sol\";\r\nimport \"./DummyToken.sol\";\r\nimport \"@openzeppelin/contracts/token/ERC20/IERC20.sol\";\r\n\r\ncontract ExerciceSolution \r\n{\r\n    IUniswapV2Factory uniswapFactory;\r\n    IUniswapV2Router01 uniswapRouter;\r\n    myERC20 erc20;\r\n    DummyToken dtk;\r\n    address WETH;\r\n    mapping(address => mapping(address => bool)) allowed; // (token, spender) => allowed\r\n\r\n    constructor (IUniswapV2Factory _uniswapFactory, myERC20 _erc20, DummyToken _dtk, IUniswapV2Router01 router) public {\r\n        uniswapFactory = _uniswapFactory;\r\n        erc20 = _erc20;\r\n        uniswapRouter = router;\r\n        WETH = uniswapRouter.WETH();\r\n        dtk = _dtk;\r\n    }\r\n\r\n    function getPair(address tokena, address tokenb) public view returns (IUniswapV2Pair) {\r\n        (address token1, address token2) = address(tokena) < address(tokenb) ? (address(tokena), address(tokenb)) : (address(tokenb), address(tokena));\r\n        return IUniswapV2Pair(uniswapFactory.getPair(token1, token2));\r\n    }\r\n\r\n    function approveTransfer(address token, address spender, uint256 amount) private {\r\n        IERC20 tokenContract = IERC20(token);\r\n        tokenContract.approve(spender, amount);\r\n    }\r\n\r\n    function approveAllTransfer(address token, address spender) private {\r\n        if(allowed[token][spender]) return;\r\n        IERC20 tokenContract = IERC20(token);\r\n        approveTransfer(token, spender, 0xffffffffffffffffffffffffffffffffffffffffffffffffffffffffffffffff);\r\n        allowed[token][spender] = true;\r\n    }\r\n\r\n\tfunction addLiquidity() external {\r\n        // Approve for WETH and erc20\r\n        approveAllTransfer(WETH, address(uniswapRouter));\r\n        approveAllTransfer(address(erc20), address(uniswapRouter));\r\n\r\n        uniswapRouter.addLiquidityETH{ value: 1000 }(\r\n            address(erc20), // token address\r\n            1000, // amount\r\n            1, // min tokens\r\n            1, // min ETH\r\n            address(this), // receiver address\r\n            block.timestamp // deadline\r\n        );\r\n    }\r\n\r\n\tfunction withdrawLiquidity() external {\r\n        // Approve for WETH and erc20\r\n        approveAllTransfer(WETH, address(uniswapRouter));\r\n        approveAllTransfer(address(erc20), address(uniswapRouter));\r\n\r\n        uniswapRouter.removeLiquidityETH(\r\n            address(erc20), // token address\r\n            1000, // amount\r\n            1, // min tokens\r\n            1, // min ETH\r\n            address(this), // receiver address\r\n            block.timestamp // deadline\r\n        );\r\n    }\r\n\r\n\tfunction swapYourTokenForDummyToken() external {\r\n        IUniswapV2Pair pair = getPair(address(erc20), address(dtk));\r\n        require(address(pair) != address(0), \"pair not found\");\r\n        // Create path\r\n        address[] memory path = new address[](2);\r\n        path[0] = address(erc20);\r\n        path[1] = address(dtk);\r\n        // Approve all transfers for erc20\r\n        approveAllTransfer(address(erc20), address(uniswapRouter));\r\n        // swap from router\r\n        uniswapRouter.swapExactTokensForTokens(\r\n            1000, // amount in\r\n            1, // min amount out,\r\n            path, // path\r\n            address(this), // sender\r\n            block.timestamp // deadline\r\n        );\r\n        // pair.swap(1000, 2000, address(this), new bytes(0));\r\n    }\r\n\r\n\tfunction swapYourTokenForEth() external {\r\n        // Get the pair\r\n        IUniswapV2Pair pair = getPair(address(erc20), WETH);\r\n        require(address(pair) != address(0), \"Pair not found\");\r\n        // Create the path\r\n        address[] memory path = new address[](2);\r\n        path[0] = address(erc20);\r\n        path[1] = WETH;\r\n\r\n        // Approve uniswap router to spend our erc20 token\r\n        approveAllTransfer(address(erc20), address(uniswapRouter));\r\n        // swap from router\r\n        uniswapRouter.swapExactTokensForTokens(\r\n            1000, // amount in\r\n            1, // min amount out\r\n            path, // path\r\n            address(this), // sender\r\n            block.timestamp // deadline\r\n        );\r\n        // pair.swap(1000, 2000, address(this), new bytes(0));\r\n    }\r\n}\r\n",
  "sourcePath": "C:\\Users\\Maax0\\Documents\\ESILV\\defi\\amm-101\\contracts\\ExerciceSolution.sol",
  "compiler": {
    "name": "solc",
    "version": "0.6.2+commit.bacdbe57.Emscripten.clang"
  },
  "schemaVersion": "3.4.4",
  "updatedAt": "2022-02-09T11:25:51.416Z",
  "networkType": "ethereum",
  "devdoc": {
    "methods": {}
  },
  "userdoc": {
    "methods": {}
  }
}